:0400000007EF00F016
:0A0008007F82EBED15F0A8EF15F074
:101000000000000E666E000E676E000E686E000E29
:10101000696EAB9E948E948C40EF0AF0B896AC94B7
:10102000AC985BC001F05CC002F0036A046A000E79
:10103000EBEC12F001C013F002C014F003C015F085
:1010400004C016F0000E0F6E240E106EF40E116E1A
:101050004A0E126EF2EC0EF00FC06AF010C06BF088
:1010600011C06CF012C06DF0000E456E000E466EA1
:10107000800E476EBF0E486E000E136E000E146E8B
:10108000800E156E420E166E6AC00FF06BC010F027
:101090006CC011F06DC012F0F2EC0EF00FC041F018
:1010A00010C042F011C043F012C044F07DEC0AF0D1
:1010B00041C051F042C052F043C053F044C054F01C
:1010C000C5EC13F051C066F052C067F053C068F031
:1010D00054C069F065EF0AF0B896AC84AC985BC078
:1010E00001F05CC002F0036A046A000EEBEC12F03F
:1010F00001C013F002C014F003C015F004C016F0D4
:10110000000E0F6E240E106EF40E116E4A0E126E4B
:10111000F2EC0EF00FC06AF010C06BF011C06CF072
:1011200012C06DF0000E456E000E466E800E476ECA
:10113000BF0E486E000E136E000E146E800E156EFC
:10114000410E166E6AC00FF06BC010F06CC011F04B
:101150006DC012F0F2EC0EF00FC041F010C042F082
:1011600011C043F012C044F07DEC0AF041C051F0D0
:1011700042C052F043C053F044C054F0C5EC13F0E9
:1011800051C066F052C067F053C068F054C069F0B7
:1011900065EF0AF0B886AC94AC985BC001F05CC017
:1011A00002F0036A046A000EEBEC12F001C013F0C7
:1011B00002C014F003C015F004C016F0000E0F6E4C
:1011C000240E106EF40E116E4A0E126EF2EC0EF03A
:1011D0000FC06AF010C06BF011C06CF012C06DF05F
:1011E000000E456E000E466E800E476EBF0E486EB6
:1011F000000E136E000E146E800E156E410E166EEC
:101200006AC00FF06BC010F06CC011F06DC012F02E
:10121000F2EC0EF00FC041F010C042F011C043F0EC
:1012200012C044F07DEC0AF041C051F042C052F0CF
:1012300043C053F044C054F0C5EC13F051C066F005
:1012400052C067F053C068F054C069F065EF0AF00F
:10125000B886AC84AC985BC001F05CC002F0036A55
:10126000046A000EEBEC12F001C013F002C014F09F
:1012700003C015F004C016F0000E0F6E240E106EA1
:10128000F40E116E4A0E126EF2EC0EF00FC06AF000
:1012900010C06BF011C06CF012C06DF0000E456E06
:1012A000000E466E800E476EBF0E486E000E136E27
:1012B000000E146E800E156E400E166E6AC00FF092
:1012C0006BC010F06CC011F06DC012F0F2EC0EF0BB
:1012D0000FC041F010C042F011C043F012C044F002
:1012E0007DEC0AF041C051F042C052F043C053F0CF
:1012F00044C054F0C5EC13F051C066F052C067F022
:1013000053C068F054C069F065EF0AF0B896AC8835
:101310005BC001F05CC002F0036A046A000EEBECF3
:1013200012F001C013F002C014F003C015F004C0A5
:1013300016F0000E0F6E240E106EF40E116E4A0E93
:10134000126EF2EC0EF00FC06AF010C06BF011C01C
:101350006CF012C06DF0000E456E000E466E800EF1
:10136000476EBF0E486E000E136E000E146E800E98
:10137000156E400E166E6AC00FF06BC010F06CC098
:1013800011F06DC012F0F2EC0EF00FC041F010C081
:1013900042F011C043F012C044F07DEC0AF041C0AD
:1013A00051F042C052F043C053F044C054F0C5EC79
:1013B00013F051C066F052C067F053C068F054C0DB
:1013C00069F065EF0AF0B886AC885BC001F05CC0DC
:1013D00002F0036A046A000EEBEC12F001C013F095
:1013E00002C014F003C015F004C016F0000E0F6E1A
:1013F000240E106EF40E116E4A0E126EF2EC0EF008
:101400000FC06AF010C06BF011C06CF012C06DF02C
:10141000000E456E000E466E800E476EBF0E486E83
:10142000000E136E000E146E800E156E400E166EBA
:101430006AC00FF06BC010F06CC011F06DC012F0FC
:10144000F2EC0EF00FC041F010C042F011C043F0BA
:1014500012C044F07DEC0AF041C051F042C052F09D
:1014600043C053F044C054F0C5EC13F051C066F0D3
:1014700052C067F053C068F054C069F065EF0AF0DD
:101480005D50646E656A6550000AD8B44AEF0AF090
:1014900065EF0AF06450000AD8B40EEF08F0010AB4
:1014A000D8B46CEF08F0030AD8B4CAEF08F0010A08
:1014B000D8B428EF09F0070AD8B486EF09F0010A7A
:1014C000D8B4E3EF09F065EF0AF066C0AFFF60B093
:1014D00002D0AB9801D0AB8861B002D0AB9C01D0F8
:1014E000AB8C5EB002D0AC9A01D0AC8A5FB002D0B7
:1014F000AC9C01D0AC8CAB8E12004450800B4D6E76
:10150000445044244F6E43AE88EF0AF08AEF0AF04D
:101510008BEF0AF04F804F50D8B491EF0AF093EF61
:101520000AF0A8EF0AF04F28D8A499EF0AF09BEF31
:101530000AF0A3EF0AF0000E416E000E426E000E9C
:10154000436E000E446E438E000E446EB0EF0AF000
:10155000000E416E000E426E000E436E000E446E91
:101560004850800B4E6E4D504E18D8B4BAEF0AF06A
:10157000BCEF0AF0BDEF0AF04D8C485048244E6E87
:1015800047AEC5EF0AF0C7EF0AF0C8EF0AF04E8089
:101590004E50D8B4CEEF0AF0D0EF0AF0E5EF0AF0E3
:1015A0004E28D8A4D6EF0AF0D8EF0AF0E0EF0AF000
:1015B000000E456E000E466E000E476E000E486E21
:1015C000478E000E486EEDEF0AF0000E456E000EDD
:1015D000466E000E476E000E486E4F504E5CD8B0FF
:1015E000F4EF0AF0F6EF0AF01DEF0BF04DACFBEF55
:1015F0000AF0FDEF0AF0FFEF0AF0800E4D1A4FC01F
:1016000050F04EC04FF050C04EF041C050F045C0B9
:1016100041F050C045F042C050F046C042F050C0CA
:1016200046F043C050F047C043F050C047F044C0BC
:1016300050F048C044F050C048F0000E506E4F507B
:101640004EC049F04A6A495E000E4A5A4ABE32EF1D
:101650000BF04A5009E11A0E495CD8A032EF0BF0AA
:1016600034EF0BF06BEF0BF041504210431044107D
:10167000D8A43DEF0BF040EF0BF0010E41EF0BF063
:10168000000E506E000E416E000E426E000E436E54
:10169000000E446E4EC04FF074EF0BF050A053EFAD
:1016A0000BF055EF0BF05BEF0BF0D89050300109C9
:1016B000506E5DEF0BF0D890503241A062EF0BF00E
:1016C00064EF0BF065EF0BF0508E4434443243323C
:1016D000423241324F2A4E504F5CD8A072EF0BF08D
:1016E00074EF0BF04EEF0BF04DBC79EF0BF07BEF8E
:1016F0000BF0BBEF0BF04F50D8A481EF0BF083EF52
:101700000BF08DEF0BF0000E416E000E426E000EDE
:10171000436E000E446EDCEF0CF0455041264650FF
:101720004222475043224850442244A09AEF0BF0F3
:101730009CEF0BF048EF0CF050A0A1EF0BF0A3EFE3
:101740000BF0A9EF0BF0D89050300109506EABEFC1
:101750000BF0D890503241A0B0EF0BF0B2EF0BF08D
:10176000B3EF0BF0508E44344432433242324132B4
:101770004F2A48EF0CF04550415C465042584750C4
:1017800043584450800A496E4850800A4958D8B09E
:10179000CCEF0BF0CEEF0BF0F9EF0BF04150455CC6
:1017A000496E425046584A6E435047584B6E44501B
:1017B00048584C6EFF0E4924416EFF0E4A20426E7F
:1017C000FF0E4B20436EFF0E4C20446E800E4D1AD0
:1017D000506C5050D8A4EFEF0BF0F1EF0BF001EF8D
:1017E0000CF0010E4126000E42224322442201EF5A
:1017F0000CF04550415E4650425A4750435A4850BB
:10180000445A4150421043104410D8A40AEF0CF03F
:101810000CEF0CF041EF0CF05050D8A412EF0CF08C
:1018200014EF0CF041EF0CF0000E416E000E426E12
:10183000000E436E000E446EDCEF0CF0D890413683
:1018400042364336443650AE28EF0CF02AEF0CF007
:101850002BEF0CF0418050A030EF0CF032EF0CF089
:1018600036EF0CF0D880503638EF0CF0D890503668
:101870004F50D8B43EEF0CF040EF0CF041EF0CF0BD
:101880004F0643AE46EF0CF048EF0CF01EEF0CF0A5
:10189000000E4E6E50AE4FEF0CF051EF0CF069EFB2
:1018A0000CF050C049F07F0E4916D8B45AEF0CF036
:1018B0005CEF0CF060EF0CF0010E4E6E69EF0CF077
:1018C00041A065EF0CF067EF0CF069EF0CF05CEFF6
:1018D0000CF04E50D8B46FEF0CF071EF0CF09CEFA1
:1018E0000CF0010E4126000E42224322442244A065
:1018F0007CEF0CF07EEF0CF09CEF0CF041C049F057
:1019000042C04AF043C04BF044C04CF04C344C321F
:101910004B324A32493249C041F04AC042F04BC0D2
:1019200043F04CC044F04F28D8B499EF0CF09BEF33
:101930000CF09CEF0CF04F2A4F28D8B4A2EF0CF01B
:10194000A4EF0CF0ACEF0CF04F50D8A4AAEF0CF0C1
:10195000ACEF0CF0BEEF0CF0000E416E000E426ECC
:10196000000E436E000E446E4F50D8A4BAEF0CF038
:10197000BCEF0CF0BEEF0CF0000E4D6E4FA0C3EFAD
:101980000CF0C5EF0CF0C8EF0CF0438EC9EF0CF073
:10199000439ED8904F30446E4DAED1EF0CF0D3EF54
:1019A0000CF0D4EF0CF0448E41C041F042C042F044
:1019B00043C043F044C044F012002B50800B346EFF
:1019C0002B502B243A6E2AAEE8EF0CF0EAEF0CF025
:1019D000EBEF0CF03A803A50D8B4F1EF0CF0F3EFA3
:1019E0000CF006EF0DF03A28D8A4F9EF0CF0FBEF5D
:1019F0000CF003EF0DF0000E286E000E296E000EA5
:101A00002A6E000E2B6E2A8E0EEF0DF0000E286E41
:101A1000000E296E000E2A6E000E2B6E2F50800BCA
:101A2000341A2F502F24396E2EAE19EF0DF01BEF04
:101A30000DF01CEF0DF039803950D8B422EF0DF0C5
:101A400024EF0DF037EF0DF03928D8A42AEF0DF070
:101A50002CEF0DF034EF0DF0000E2C6E000E2D6EFD
:101A6000000E2E6E000E2F6E2E8E3FEF0DF0000E2C
:101A70002C6E000E2D6E000E2E6E000E2F6E395045
:101A8000D8B445EF0DF047EF0DF04FEF0DF03A50A1
:101A9000D8A44DEF0DF04FEF0DF059EF0DF0000E03
:101AA000286E000E296E000E2A6E000E2B6EF1EFCE
:101AB0000EF02E502802F3CF3FF0F4CF40F03F500D
:101AC000356E366A376A386A40503B6E3C6A3D6A0A
:101AD0003E6A2D502902F3CF3FF0F4CF40F03F5043
:101AE0003526000E36223722382240503B26000E83
:101AF0003C223D223E222C502A02F3CF3FF0F4CF6D
:101B000040F03F503526000E362237223822405012
:101B10003B26000E3C223D223E2237C038F036C024
:101B200037F035C036F0356A2C502902F3CF3FF03C
:101B3000F4CF40F03F50352640503622000E372279
:101B4000000E38222D502802F3CF3FF0F4CF40F0A2
:101B50003F50352640503622000E3722000E3822E4
:101B600037C038F036C037F035C036F0356A2C5003
:101B70002802F3CF3FF0F4CF40F03F5035264050DD
:101B80003622000E3722000E38222E502902F3CFC3
:101B90003FF0F4CF40F03F503B2640503C22000E37
:101BA0003D22000E3E222D502A02F3CF3FF0F4CF0B
:101BB00040F03F503B2640503C22000E3D22000E9C
:101BC0003E222E502A02F3CF3FF0F4CF40F03F5098
:101BD000306E4050316E326A336A32C033F031C0F9
:101BE00032F030C031F0306A30503B2631503C2268
:101BF00032503D2233503E2235C030F036C031F0F5
:101C000037C032F038C033F0190E0CEF0EF0D89018
:101C10003332323231323032E82E07EF0EF03050AC
:101C20003B2631503C2232503D2233503E2237C0B9
:101C300038F036C037F035C036F0356A39503AC022
:101C400030F0316A3026000E3122820E30243F6E91
:101C5000FF0E3120406E42EF0EF0D8903B363C36FE
:101C60003D363E3638AE37EF0EF039EF0EF03AEF34
:101C70000EF03B80D89035363636373638363F064C
:101C8000D8A040063DAE47EF0EF049EF0EF02DEF25
:101C90000EF0000E396E38AE50EF0EF052EF0EF02F
:101CA00076EF0EF0FF0E3514306EFF0E3614316EE7
:101CB000FF0E3714326E7F0E3814336E30503110F1
:101CC00032103310D8B467EF0EF069EF0EF06DEFFD
:101CD0000EF0010E396E76EF0EF03BA072EF0EF0B3
:101CE00074EF0EF076EF0EF069EF0EF03950D8B4C5
:101CF0007CEF0EF07EEF0EF0A2EF0EF0010E3B2611
:101D0000000E3C223D223E223EA089EF0EF08BEFDA
:101D10000EF0A2EF0EF03BC030F03CC031F03DC001
:101D200032F03EC033F0333433323232313230327B
:101D300030C03BF031C03CF032C03DF033C03EF02B
:101D40003F4A402A40BEADEF0EF0405008E13F2828
:101D5000D8A0ADEF0EF0AFEF0EF0B9EF0EF0000E21
:101D60003B6E000E3C6E800E3D6E7F0E3E6EE7EFCA
:101D70000EF040BEC6EF0EF0405006E13F04D8B072
:101D8000C4EF0EF0C6EF0EF0D2EF0EF0000E3B6E79
:101D9000000E3C6E000E3D6E000E3E6E000E346E68
:101DA000E7EF0EF03FC03AF0FF0E3B16FF0E3C1679
:101DB0007F0E3D16000E3E163AA0E1EF0EF0E3EF67
:101DC0000EF0E4EF0EF03D8ED8903A303E6E345077
:101DD0003E123BC028F03CC029F03DC02AF03EC076
:101DE0002BF012001250800B1F6E12501224266E20
:101DF00011AEFDEF0EF0FFEF0EF000EF0FF02680BA
:101E00002650D8B406EF0FF008EF0FF01DEF0FF0DB
:101E10002628D8A40EEF0FF010EF0FF018EF0FF0F8
:101E2000000E0F6E000E106E000E116E000E126E80
:101E3000118E000E126E25EF0FF0000E0F6E000EC9
:101E4000106E000E116E000E126E1650800B1F1ACF
:101E500016501624276E15AE30EF0FF032EF0FF04C
:101E600033EF0FF027802750D8B439EF0FF03BEF56
:101E70000FF050EF0FF02728D8A441EF0FF043EFF9
:101E80000FF04BEF0FF0000E136E000E146E000EED
:101E9000156E000E166E158E000E166E58EF0FF0B2
:101EA000000E136E000E146E000E156E000E166EF0
:101EB0001350141015101610D8A461EF0FF063EF33
:101EC0000FF07BEF0FF0000E0F6E000E106E000E85
:101ED000116E000E126E800E11127F0E12121F5024
:101EE00012120FC00FF010C010F011C011F012C08C
:101EF00012F0BEEF10F02650D8A481EF0FF083EF60
:101F00000FF08DEF0FF0000E0F6E000E106E000E32
:101F1000116E000E126EBEEF10F0275026C017F0A3
:101F2000186A175E000E185A7F0E1724206E000ED6
:101F30001820216E0FC01BF010C01CF011C01DF046
:101F400012C01EF0000E0F6E000E106E000E116E0D
:101F5000000E126E000E226E000E236E000E246E16
:101F6000000E256E000E276EEEEF0FF02750D8B44E
:101F7000BCEF0FF0BEEF0FF0D5EF0FF0D8901B368F
:101F80001C361D361E36D8900F36103611361236D6
:101F900025AECDEF0FF0CFEF0FF0D0EF0FF00F80A9
:101FA000D890223623362436253613501B5C145025
:101FB0001C5815501D5816501E58D8A0E2EF0FF0AF
:101FC000E4EF0FF0EDEF0FF0258C13501B5E145073
:101FD0001C5A15501D5A16501E5A272A190E2764CE
:101FE000F4EF0FF0F6EF0FF0B6EF0FF01B501C10F0
:101FF0001D101E10D8B4FFEF0FF001EF10F019EF15
:1020000010F0228019EF10F0D8900F3610361136EC
:10201000123625AE0EEF10F010EF10F011EF10F0A9
:102020000F80D89022362336243625362006D8A0B5
:10203000210611AE1EEF10F020EF10F004EF10F0AB
:10204000000E276E25AE27EF10F029EF10F04DEFB0
:1020500010F0FF0E2214176EFF0E2314186EFF0EE1
:102060002414196E7F0E25141A6E175018101910AB
:102070001A10D8B43EEF10F040EF10F044EF10F01B
:10208000010E276E4DEF10F00FA049EF10F04BEF4F
:1020900010F04DEF10F040EF10F02750D8B453EF90
:1020A00010F055EF10F079EF10F0010E0F26000E32
:1020B00010221122122212A060EF10F062EF10F035
:1020C00079EF10F00FC017F010C018F011C019F020
:1020D00012C01AF01A341A3219321832173217C0D5
:1020E0000FF018C010F019C011F01AC012F0204AF9
:1020F000212A21BE84EF10F0215008E12028D8A029
:1021000084EF10F086EF10F091EF10F0000E216ECA
:102110002068000E0F6E000E106E000E116E000E85
:10212000126E21BE9EEF10F0215006E12004D8B0BF
:102130009CEF10F09EEF10F0ACEF10F0000E216E4F
:10214000000E206E000E0F6E000E106E000E116E4F
:10215000000E126E000E1F6E20C026F026A0B3EFF8
:1021600010F0B5EF10F0B8EF10F0118EB9EF10F0DD
:10217000119ED8902630126E6FEF0FF01200F00E05
:10218000BD165B50D8A4C7EF10F0C9EF10F007EFF1
:1021900011F0040E5C18D8A4D0EF10F0D2EF10F0BC
:1021A000D8EF10F0BD50F00B0409BD6EF8EF11F040
:1021B000050E5C18D8A4DFEF10F0E1EF10F0E7EFA8
:1021C00010F0BD50F00B0509BD6EF8EF11F0060ED2
:1021D0005C18D8A4EEEF10F0F0EF10F0F6EF10F06E
:1021E000BD50F00B0609BD6EF8EF11F0070E5C183C
:1021F000D8A4FDEF10F0FFEF10F005EF11F0BD5087
:10220000F00B0709BD6EF8EF11F0F8EF11F05B0469
:10221000D8A40DEF11F00FEF11F05AEF11F0080EE6
:102220005C18D8A416EF11F018EF11F01EEF11F0A2
:10223000BD50F00B0809BD6EF8EF11F0090E5C18E7
:10224000D8A425EF11F027EF11F02DEF11F0BD50BC
:10225000F00B0909BD6EF8EF11F0020E5C18D8A45E
:1022600034EF11F036EF11F03CEF11F0BD50F00BF0
:102270000209BD6EF8EF11F00A0E5C18D8A443EF06
:1022800011F045EF11F04BEF11F0BD50F00B0A09C2
:10229000BD6EF8EF11F00B0E5C18D8A452EF11F0E0
:1022A00054EF11F005EF11F0BD50F00B0B09BD6EAE
:1022B000F8EF11F0020E5B18D8A461EF11F063EF94
:1022C00011F0F8EF11F0BD50F00B0C09BD6E000ECF
:1022D0002C6E000E2D6E800E2E6E400E2F6E5EC088
:1022E00001F05FC002F060C003F061C004F0000EB6
:1022F000EBEC12F001C028F002C029F003C02AF074
:1023000004C02BF0DDEC0CF028C064F029C065F0AF
:102310002AC066F02BC067F06250016E026A036A41
:10232000046A010EEBEC12F001C02CF002C02DF09B
:1023300003C02EF004C02FF064C028F065C029F05F
:1023400066C02AF067C02BF0DDEC0CF028C068F006
:1023500029C069F02AC06AF02BC06BF0000E456EF0
:10236000000E466E800E476EBF0E486E6350016EC3
:10237000026A036A046A010EEBEC12F001C02CF051
:1023800002C02DF003C02EF004C02FF068C028F06A
:1023900069C029F06AC02AF06BC02BF0DDEC0CF0AC
:1023A00028C013F029C014F02AC015F02BC016F075
:1023B000000E0F6E240E106EF40E116E4A0E126E89
:1023C000F2EC0EF00FC041F010C042F011C043F02B
:1023D00012C044F07DEC0AF041C051F042C052F00E
:1023E00043C053F044C054F0C5EC13F05150CB6ED1
:1023F0005D50B3EC14F0010E016E5D501BEC15F056
:102400001200CA940250D8A408EF12F00AEF12F09A
:102410000EEF12F0FC0ECA1629EF12F00204D8A437
:1024200014EF12F016EF12F01CEF12F0CA50FC0B72
:102430000109CA6E29EF12F0020E0218D8A423EF88
:1024400012F025EF12F029EF12F0CA50FC0B02092E
:10245000CA6E0350D8A42FEF12F031EF12F034EF10
:1024600012F0CA96E7EF12F00304D8A43AEF12F084
:102470003CEF12F03FEF12F0CA86E7EF12F0020EC7
:102480000318D8A446EF12F048EF12F04BEF12F009
:10249000CA96E7EF12F0030E0318D8A452EF12F019
:1024A00054EF12F057EF12F0CA86E7EF12F0040E65
:1024B0000318D8A45EEF12F060EF12F063EF12F091
:1024C000CA96E7EF12F0050E0318D8A46AEF12F0CF
:1024D0006CEF12F06FEF12F0CA86E7EF12F0060E03
:1024E0000318D8A476EF12F078EF12F07BEF12F019
:1024F000CA96E7EF12F0070E0318D8A482EF12F085
:1025000084EF12F087EF12F0CA86E7EF12F0080EA0
:102510000318D8A48EEF12F090EF12F093EF12F0A0
:10252000CA96E7EF12F0090E0318D8A49AEF12F03A
:102530009CEF12F09FEF12F0CA86E7EF12F00A0E3E
:102540000318D8A4A6EF12F0A8EF12F0ABEF12F028
:10255000CA96E7EF12F00B0E0318D8A4B2EF12F0F0
:10256000B4EF12F0B7EF12F0CA86E7EF12F00C0EDC
:102570000318D8A4BEEF12F0C0EF12F0C3EF12F0B0
:10258000CA96E7EF12F00D0E0318D8A4CAEF12F0A6
:10259000CCEF12F0CFEF12F0CA86E7EF12F00E0E7A
:1025A0000318D8A4D6EF12F0D8EF12F0DBEF12F038
:1025B000CA96E7EF12F00F0E0318D8A4E2EF12F05C
:1025C000E4EF12F0E7EF12F0CA86E7EF12F001C075
:1025D000CCFFCA841200096E0950D8B4F2EF12F091
:1025E000F4EF12F016EF13F004BEFBEF12F0F9EF68
:1025F00012F016EF13F001C005F002C006F003C0A0
:1026000007F004C008F0051E061E071E081E052A56
:10261000000E06220722082205C00BF006C00CF0AF
:1026200007C00DF008C00EF01EEF13F001C00BF054
:1026300002C00CF003C00DF004C00EF001500210F7
:1026400003100410D8A427EF13F029EF13F033EF91
:1026500013F0000E016E000E026E000E036E000EEF
:10266000046EC4EF13F0960E0A6E3DEF13F00A2AC3
:10267000D8900E320D320C320B32000E0B14056E58
:10268000000E0C14066E000E0D14076EFE0E0E14D6
:10269000086E0550061007100810D8A452EF13F06A
:1026A00054EF13F037EF13F062EF13F00A2A010E24
:1026B0000B26000E0C220D220E22D8900E320D3267
:1026C0000C320B32000E0B14056E000E0C14066E4D
:1026D000000E0D14076EFF0E0E14086E0550061046
:1026E00007100810D8A477EF13F079EF13F056EF26
:1026F00013F081EF13F00A06D8900B360C360D3626
:102700000E360DBE86EF13F088EF13F090EF13F046
:10271000020E0A608EEF13F090EF13F07BEF13F0D0
:102720000AB095EF13F097EF13F098EF13F00D9EAA
:10273000D8900A320AC005F0066A076A086A05C01E
:1027400008F0076A066A056A05500B1206500C125B
:1027500007500D1208500E120950D8B4B2EF13F002
:10276000B4EF13F0BCEF13F004BEBBEF13F0B9EFFE
:1027700013F0BCEF13F00E8E0BC001F00CC002F092
:102780000DC003F00EC004F01200533454345A6EDE
:102790005A50D8A4CEEF13F0D0EF13F0DAEF13F0C5
:1027A000000E516E000E526E000E536E000E546EEF
:1027B00047EF14F051C055F052C056F053C057F0D7
:1027C00054C058F0200EEAEF13F0D8905832573228
:1027D00056325532E82EE5EF13F05550596E538EB0
:1027E000FF0E5116FF0E5216FF0E5316000E541612
:1027F000960E5A5E5ABE01EF14F0FFEF13F017EF7A
:1028000014F05A50800A970FD8B009EF14F00BEF6C
:1028100014F00DEF14F0D0EF13F0D890543253327F
:10282000523251325A3E0DEF14F02FEF14F01F0EBA
:102830005A641DEF14F01FEF14F027EF14F0D0EFDF
:1028400013F0D89051365236533654365A065A50F1
:10285000D8A42DEF14F02FEF14F021EF14F05950FD
:10286000D8B435EF14F037EF14F03FEF14F0541EE6
:10287000531E521E516C000E52225322542251C03C
:1028800051F052C052F053C053F054C054F01200F3
:10289000000E136E000E146EC80E156E420E166EEC
:1028A0005BC001F05CC002F0036A046A000EEBEC4E
:1028B00012F001C00FF002C010F003C011F004C00C
:1028C00012F0F2EC0EF00FC02CF010C02DF011C081
:1028D0002EF012C02FF0CB505D6E5E6AD8905D3640
:1028E0005E36D8905D365E36040E5D26000E5E22A2
:1028F0005DC001F05EC002F0000E02BEFF0E036E6E
:10290000046E010EEBEC12F001C028F002C029F0B9
:1029100003C02AF004C02BF0DDEC0CF028C051F00D
:1029200029C052F02AC053F02BC054F0C5EC13F06C
:1029300051C05FF052C060F05FC05DF0030E5D16E5
:102940005D3ABD505D18CF0B5D18BD6E5FC05DF088
:1029500060C05EF0D8905E325D32D8905E325D32FB
:102960005D50BE6E1200066EFDEF14F00630E832C8
:10297000E832070B016E010E026E012AC2EF14F05D
:10298000D8900236012EC0EF14F00250FF0A036EF9
:102990000650070B020DF350A40FD96EDA6ADECF92
:1029A00004F0DDCF05F004C0D9FF05C0DAFF035005
:1029B000DF161AEF15F00630E832E832070B016E29
:1029C000010E026E012AE7EF14F0D8900236012EB4
:1029D000E5EF14F00650070B020DF350A40FD96E6B
:1029E000DA6ADECF03F0DDCF04F003C0D9FF04C004
:1029F000DAFF0250DF121AEF15F006BC02EF15F0F5
:102A000005EF15F0010E06EF15F0000E016E026ADB
:102A10000250000AD8B40FEF15F01AEF15F001506C
:102A2000000AD8B4B6EF14F0010AD8B4DBEF14F002
:102A30001AEF15F01200076E65EF15F00730E83257
:102A4000E832070B026E010E036E022A2AEF15F020
:102A5000D8900336022E28EF15F00750070B020D11
:102A6000F3509A0FD96EDA6ADECF04F0DDCF05F0AD
:102A700004C0D9FF05C0DAFF0350DF127AEF15F06A
:102A80000730E832E832070B026E010E036E022AAD
:102A90004CEF15F0D8900336022E4AEF15F0035094
:102AA000FF0A046E0750070B020DF3509A0FD96E00
:102AB000DA6ADECF05F0DDCF06F005C0D9FF06C02B
:102AC000DAFF0450DF167AEF15F00150026E036A48
:102AD0000350000AD8B46FEF15F07AEF15F00250EA
:102AE000000AD8B440EF15F0010AD8B41EEF15F073
:102AF0007AEF15F0120020EEAEF000EE5BF0080E5B
:102B0000DBCFEBFFE806FCE201EC08F020EEB7F0CB
:102B100000EE5BF0080EDBCFEBFFE806FCE2BFEC5B
:102B200010F0C0C001F0C1C002F0C2C003F001EC5F
:102B300012F0000E5C6E320E5B6E48EC14F009EC85
:102B400016F0410EFEEC15F0A1EF15F007EF00F0C6
:102B5000960EF66E2B0EF76E000EF86E00EE80F0FD
:102B600010EE40F00900F5CFEEFFE550E150FAE13C
:102B700000EEC0F0070EEE6AE806FDE100EE6EF032
:102B8000110EEE6AE806FDE17F907F92000EF86E6E
:102B900000017BEF15F03738392F3435362A3132C2
:102BA000332D23303D2B800F810F820F830F840F35
:102BB000890F8A0F8B0F8C0F8D0F920F930F940F2D
:102BC000950F960F802500010001000000020C9275
:102BD000204E000001010600F2AEF1EF15F0F3EF18
:102BE00015F0FCEF15F0F2B8F8EF15F0FAEF15F06C
:102BF000FCEF15F00EEC16F07F921100016EACA206
:102C000004EF16F006EF16F0FFEF15F001C0ADFF70
:102C10001200BD50F00B0C09BD6E1200F2921200B2
:00000001FF
